{
  "abi": [
    {
      "inputs": [],
      "stateMutability": "nonpayable",
      "type": "constructor"
    },
    {
      "anonymous": false,
      "inputs": [
        {
          "indexed": true,
          "internalType": "address",
          "name": "owner",
          "type": "address"
        },
        {
          "indexed": true,
          "internalType": "address",
          "name": "approved",
          "type": "address"
        },
        {
          "indexed": true,
          "internalType": "uint256",
          "name": "tokenId",
          "type": "uint256"
        }
      ],
      "name": "Approval",
      "type": "event"
    },
    {
      "anonymous": false,
      "inputs": [
        {
          "indexed": true,
          "internalType": "address",
          "name": "owner",
          "type": "address"
        },
        {
          "indexed": true,
          "internalType": "address",
          "name": "operator",
          "type": "address"
        },
        {
          "indexed": false,
          "internalType": "bool",
          "name": "approved",
          "type": "bool"
        }
      ],
      "name": "ApprovalForAll",
      "type": "event"
    },
    {
      "anonymous": false,
      "inputs": [
        {
          "indexed": true,
          "internalType": "address",
          "name": "previousOwner",
          "type": "address"
        },
        {
          "indexed": true,
          "internalType": "address",
          "name": "newOwner",
          "type": "address"
        }
      ],
      "name": "OwnershipTransferred",
      "type": "event"
    },
    {
      "anonymous": false,
      "inputs": [
        {
          "indexed": true,
          "internalType": "address",
          "name": "from",
          "type": "address"
        },
        {
          "indexed": true,
          "internalType": "address",
          "name": "to",
          "type": "address"
        },
        {
          "indexed": true,
          "internalType": "uint256",
          "name": "tokenId",
          "type": "uint256"
        }
      ],
      "name": "Transfer",
      "type": "event"
    },
    {
      "inputs": [],
      "name": "MAX_MINT_PER_TX",
      "outputs": [
        {
          "internalType": "uint256",
          "name": "",
          "type": "uint256"
        }
      ],
      "stateMutability": "view",
      "type": "function"
    },
    {
      "inputs": [],
      "name": "MAX_PRESALE_SUPPLY",
      "outputs": [
        {
          "internalType": "uint256",
          "name": "",
          "type": "uint256"
        }
      ],
      "stateMutability": "view",
      "type": "function"
    },
    {
      "inputs": [],
      "name": "MAX_SUPPLY",
      "outputs": [
        {
          "internalType": "uint256",
          "name": "",
          "type": "uint256"
        }
      ],
      "stateMutability": "view",
      "type": "function"
    },
    {
      "inputs": [],
      "name": "a1",
      "outputs": [
        {
          "internalType": "address",
          "name": "",
          "type": "address"
        }
      ],
      "stateMutability": "view",
      "type": "function"
    },
    {
      "inputs": [],
      "name": "a2",
      "outputs": [
        {
          "internalType": "address",
          "name": "",
          "type": "address"
        }
      ],
      "stateMutability": "view",
      "type": "function"
    },
    {
      "inputs": [],
      "name": "a3",
      "outputs": [
        {
          "internalType": "address",
          "name": "",
          "type": "address"
        }
      ],
      "stateMutability": "view",
      "type": "function"
    },
    {
      "inputs": [
        {
          "internalType": "address",
          "name": "to",
          "type": "address"
        },
        {
          "internalType": "uint256",
          "name": "tokenId",
          "type": "uint256"
        }
      ],
      "name": "approve",
      "outputs": [],
      "stateMutability": "nonpayable",
      "type": "function"
    },
    {
      "inputs": [
        {
          "internalType": "address",
          "name": "owner",
          "type": "address"
        }
      ],
      "name": "balanceOf",
      "outputs": [
        {
          "internalType": "uint256",
          "name": "",
          "type": "uint256"
        }
      ],
      "stateMutability": "view",
      "type": "function"
    },
    {
      "inputs": [],
      "name": "baseTokenURI",
      "outputs": [
        {
          "internalType": "string",
          "name": "",
          "type": "string"
        }
      ],
      "stateMutability": "view",
      "type": "function"
    },
    {
      "inputs": [
        {
          "internalType": "address[]",
          "name": "_a",
          "type": "address[]"
        },
        {
          "internalType": "uint256[]",
          "name": "_amount",
          "type": "uint256[]"
        }
      ],
      "name": "editWhitelistReserved",
      "outputs": [],
      "stateMutability": "nonpayable",
      "type": "function"
    },
    {
      "inputs": [
        {
          "internalType": "uint256",
          "name": "tokenId",
          "type": "uint256"
        }
      ],
      "name": "getApproved",
      "outputs": [
        {
          "internalType": "address",
          "name": "",
          "type": "address"
        }
      ],
      "stateMutability": "view",
      "type": "function"
    },
    {
      "inputs": [],
      "name": "initial_price",
      "outputs": [
        {
          "internalType": "uint256",
          "name": "",
          "type": "uint256"
        }
      ],
      "stateMutability": "view",
      "type": "function"
    },
    {
      "inputs": [
        {
          "internalType": "address",
          "name": "owner",
          "type": "address"
        },
        {
          "internalType": "address",
          "name": "operator",
          "type": "address"
        }
      ],
      "name": "isApprovedForAll",
      "outputs": [
        {
          "internalType": "bool",
          "name": "",
          "type": "bool"
        }
      ],
      "stateMutability": "view",
      "type": "function"
    },
    {
      "inputs": [
        {
          "internalType": "uint256",
          "name": "_amount",
          "type": "uint256"
        }
      ],
      "name": "mintPresale",
      "outputs": [],
      "stateMutability": "payable",
      "type": "function"
    },
    {
      "inputs": [
        {
          "internalType": "uint256",
          "name": "_amount",
          "type": "uint256"
        }
      ],
      "name": "mintReserved",
      "outputs": [],
      "stateMutability": "nonpayable",
      "type": "function"
    },
    {
      "inputs": [
        {
          "internalType": "uint256",
          "name": "_amount",
          "type": "uint256"
        }
      ],
      "name": "mintToken",
      "outputs": [],
      "stateMutability": "payable",
      "type": "function"
    },
    {
      "inputs": [
        {
          "internalType": "uint256",
          "name": "_amount",
          "type": "uint256"
        }
      ],
      "name": "mintWhitelist",
      "outputs": [],
      "stateMutability": "payable",
      "type": "function"
    },
    {
      "inputs": [],
      "name": "name",
      "outputs": [
        {
          "internalType": "string",
          "name": "",
          "type": "string"
        }
      ],
      "stateMutability": "view",
      "type": "function"
    },
    {
      "inputs": [],
      "name": "owner",
      "outputs": [
        {
          "internalType": "address",
          "name": "",
          "type": "address"
        }
      ],
      "stateMutability": "view",
      "type": "function"
    },
    {
      "inputs": [
        {
          "internalType": "uint256",
          "name": "tokenId",
          "type": "uint256"
        }
      ],
      "name": "ownerOf",
      "outputs": [
        {
          "internalType": "address",
          "name": "",
          "type": "address"
        }
      ],
      "stateMutability": "view",
      "type": "function"
    },
    {
      "inputs": [],
      "name": "presaleActive",
      "outputs": [
        {
          "internalType": "bool",
          "name": "",
          "type": "bool"
        }
      ],
      "stateMutability": "view",
      "type": "function"
    },
    {
      "inputs": [],
      "name": "price",
      "outputs": [
        {
          "internalType": "uint256",
          "name": "",
          "type": "uint256"
        }
      ],
      "stateMutability": "view",
      "type": "function"
    },
    {
      "inputs": [],
      "name": "renounceOwnership",
      "outputs": [],
      "stateMutability": "nonpayable",
      "type": "function"
    },
    {
      "inputs": [],
      "name": "reserved",
      "outputs": [
        {
          "internalType": "uint256",
          "name": "",
          "type": "uint256"
        }
      ],
      "stateMutability": "view",
      "type": "function"
    },
    {
      "inputs": [
        {
          "internalType": "address",
          "name": "from",
          "type": "address"
        },
        {
          "internalType": "address",
          "name": "to",
          "type": "address"
        },
        {
          "internalType": "uint256",
          "name": "tokenId",
          "type": "uint256"
        }
      ],
      "name": "safeTransferFrom",
      "outputs": [],
      "stateMutability": "nonpayable",
      "type": "function"
    },
    {
      "inputs": [
        {
          "internalType": "address",
          "name": "from",
          "type": "address"
        },
        {
          "internalType": "address",
          "name": "to",
          "type": "address"
        },
        {
          "internalType": "uint256",
          "name": "tokenId",
          "type": "uint256"
        },
        {
          "internalType": "bytes",
          "name": "data",
          "type": "bytes"
        }
      ],
      "name": "safeTransferFrom",
      "outputs": [],
      "stateMutability": "nonpayable",
      "type": "function"
    },
    {
      "inputs": [],
      "name": "saleActive",
      "outputs": [
        {
          "internalType": "bool",
          "name": "",
          "type": "bool"
        }
      ],
      "stateMutability": "view",
      "type": "function"
    },
    {
      "inputs": [
        {
          "internalType": "address[]",
          "name": "_a",
          "type": "address[]"
        }
      ],
      "name": "setAddresses",
      "outputs": [],
      "stateMutability": "nonpayable",
      "type": "function"
    },
    {
      "inputs": [
        {
          "internalType": "address",
          "name": "operator",
          "type": "address"
        },
        {
          "internalType": "bool",
          "name": "approved",
          "type": "bool"
        }
      ],
      "name": "setApprovalForAll",
      "outputs": [],
      "stateMutability": "nonpayable",
      "type": "function"
    },
    {
      "inputs": [
        {
          "internalType": "string",
          "name": "baseURI",
          "type": "string"
        }
      ],
      "name": "setBaseURI",
      "outputs": [],
      "stateMutability": "nonpayable",
      "type": "function"
    },
    {
      "inputs": [
        {
          "internalType": "bool",
          "name": "val",
          "type": "bool"
        }
      ],
      "name": "setPresaleActive",
      "outputs": [],
      "stateMutability": "nonpayable",
      "type": "function"
    },
    {
      "inputs": [
        {
          "internalType": "uint256",
          "name": "newPrice",
          "type": "uint256"
        }
      ],
      "name": "setPrice",
      "outputs": [],
      "stateMutability": "nonpayable",
      "type": "function"
    },
    {
      "inputs": [
        {
          "internalType": "bool",
          "name": "val",
          "type": "bool"
        }
      ],
      "name": "setSaleActive",
      "outputs": [],
      "stateMutability": "nonpayable",
      "type": "function"
    },
    {
      "inputs": [
        {
          "internalType": "bool",
          "name": "val",
          "type": "bool"
        }
      ],
      "name": "setWhitelistActive",
      "outputs": [],
      "stateMutability": "nonpayable",
      "type": "function"
    },
    {
      "inputs": [
        {
          "internalType": "bytes4",
          "name": "interfaceId",
          "type": "bytes4"
        }
      ],
      "name": "supportsInterface",
      "outputs": [
        {
          "internalType": "bool",
          "name": "",
          "type": "bool"
        }
      ],
      "stateMutability": "view",
      "type": "function"
    },
    {
      "inputs": [],
      "name": "symbol",
      "outputs": [
        {
          "internalType": "string",
          "name": "",
          "type": "string"
        }
      ],
      "stateMutability": "view",
      "type": "function"
    },
    {
      "inputs": [
        {
          "internalType": "uint256",
          "name": "index",
          "type": "uint256"
        }
      ],
      "name": "tokenByIndex",
      "outputs": [
        {
          "internalType": "uint256",
          "name": "",
          "type": "uint256"
        }
      ],
      "stateMutability": "view",
      "type": "function"
    },
    {
      "inputs": [
        {
          "internalType": "address",
          "name": "owner",
          "type": "address"
        },
        {
          "internalType": "uint256",
          "name": "index",
          "type": "uint256"
        }
      ],
      "name": "tokenOfOwnerByIndex",
      "outputs": [
        {
          "internalType": "uint256",
          "name": "",
          "type": "uint256"
        }
      ],
      "stateMutability": "view",
      "type": "function"
    },
    {
      "inputs": [
        {
          "internalType": "uint256",
          "name": "tokenId",
          "type": "uint256"
        }
      ],
      "name": "tokenURI",
      "outputs": [
        {
          "internalType": "string",
          "name": "",
          "type": "string"
        }
      ],
      "stateMutability": "view",
      "type": "function"
    },
    {
      "inputs": [
        {
          "internalType": "address",
          "name": "addr",
          "type": "address"
        }
      ],
      "name": "tokensOfOwner",
      "outputs": [
        {
          "internalType": "uint256[]",
          "name": "",
          "type": "uint256[]"
        }
      ],
      "stateMutability": "view",
      "type": "function"
    },
    {
      "inputs": [],
      "name": "totalSupply",
      "outputs": [
        {
          "internalType": "uint256",
          "name": "",
          "type": "uint256"
        }
      ],
      "stateMutability": "view",
      "type": "function"
    },
    {
      "inputs": [
        {
          "internalType": "address",
          "name": "from",
          "type": "address"
        },
        {
          "internalType": "address",
          "name": "to",
          "type": "address"
        },
        {
          "internalType": "uint256",
          "name": "tokenId",
          "type": "uint256"
        }
      ],
      "name": "transferFrom",
      "outputs": [],
      "stateMutability": "nonpayable",
      "type": "function"
    },
    {
      "inputs": [
        {
          "internalType": "address",
          "name": "newOwner",
          "type": "address"
        }
      ],
      "name": "transferOwnership",
      "outputs": [],
      "stateMutability": "nonpayable",
      "type": "function"
    },
    {
      "inputs": [],
      "name": "whitelistActive",
      "outputs": [
        {
          "internalType": "bool",
          "name": "",
          "type": "bool"
        }
      ],
      "stateMutability": "view",
      "type": "function"
    },
    {
      "inputs": [
        {
          "internalType": "address",
          "name": "",
          "type": "address"
        }
      ],
      "name": "whitelistReserved",
      "outputs": [
        {
          "internalType": "uint256",
          "name": "",
          "type": "uint256"
        }
      ],
      "stateMutability": "view",
      "type": "function"
    },
    {
      "inputs": [
        {
          "internalType": "uint256",
          "name": "amount",
          "type": "uint256"
        }
      ],
      "name": "withdrawTeam",
      "outputs": [],
      "stateMutability": "payable",
      "type": "function"
    }
  ],
  "bytecode": {
    "object": "0x600a805462ffffff60a01b191690556005600b5566b1a2bc2ec50000600c55610100604052604460808181529062002f6460a039600e90620000429082620001d4565b503480156200005057600080fd5b506040518060400160405280600a815260200169115e185b5c1b1953919560b21b8152506040518060400160405280600381526020016211539560ea1b8152508160009081620000a19190620001d4565b506001620000b08282620001d4565b505050620000cd620000c7620000d960201b60201c565b620000dd565b600c54600d55620002a0565b3390565b600a80546001600160a01b038381166001600160a01b0319831681179093556040519116919082907f8be0079c531659141344cd1fd0a4f28419497f9722a3daafe3b4186f6b6457e090600090a35050565b634e487b7160e01b600052604160045260246000fd5b600181811c908216806200015a57607f821691505b6020821081036200017b57634e487b7160e01b600052602260045260246000fd5b50919050565b601f821115620001cf57600081815260208120601f850160051c81016020861015620001aa5750805b601f850160051c820191505b81811015620001cb57828155600101620001b6565b5050505b505050565b81516001600160401b03811115620001f057620001f06200012f565b620002088162000201845462000145565b8462000181565b602080601f831160018114620002405760008415620002275750858301515b600019600386901b1c1916600185901b178555620001cb565b600085815260208120601f198616915b82811015620002715788860151825594840194600190910190840162000250565b5085821015620002905787850151600019600388901b60f8161c191681555b5050505050600190811b01905550565b612cb480620002b06000396000f3fe60806040526004361061027d5760003560e01c80638462151c1161014f578063b88d4fde116100c1578063e985e9c51161007a578063e985e9c51461075d578063f14c0bcc146107a6578063f2fde38b146107c6578063f759867a146107e6578063fd2b0492146107f9578063fe60d12c1461080c57600080fd5b8063b88d4fde146106b5578063b9571721146106d5578063c3b754dc146106f5578063c634d03214610715578063c87b56dd14610728578063d547cfb71461074857600080fd5b806395d89b411161011357806395d89b4114610614578063969e9d0c146106295780639a5d140b14610649578063a035b1fe14610669578063a22cb4651461067f578063ab3f5a1a1461069f57600080fd5b80638462151c146105745780638da5cb5b146105a15780638ecad721146105bf57806391b7f5ed146105d45780639426eef8146105f457600080fd5b806342842e0e116101f357806368428a1b116101ac57806368428a1b146104bc5780636b8dc355146104dd57806370a08231146104f2578063715018a61461051257806372e3a3eb14610527578063841718a61461055457600080fd5b806342842e0e146104085780634618163e146104285780634f6ccce71461043b57806353135ca01461045b57806355f804b31461047c5780636352211e1461049c57600080fd5b8063119552a111610245578063119552a11461035457806318160ddd1461037457806323b872dd146103935780632f745c59146103b357806332cb6b0c146103d35780633f8121a2146103e857600080fd5b806301ffc9a71461028257806302ce5813146102b757806306fdde03146102d8578063081812fc146102fa578063095ea7b314610332575b600080fd5b34801561028e57600080fd5b506102a261029d36600461239d565b610822565b60405190151581526020015b60405180910390f35b3480156102c357600080fd5b50600a546102a290600160a81b900460ff1681565b3480156102e457600080fd5b506102ed61084d565b6040516102ae919061240a565b34801561030657600080fd5b5061031a61031536600461241d565b6108df565b6040516001600160a01b0390911681526020016102ae565b34801561033e57600080fd5b5061035261034d366004612452565b610906565b005b34801561036057600080fd5b50600f5461031a906001600160a01b031681565b34801561038057600080fd5b506008545b6040519081526020016102ae565b34801561039f57600080fd5b506103526103ae36600461247c565b610a20565b3480156103bf57600080fd5b506103856103ce366004612452565b610a51565b3480156103df57600080fd5b50610385601e81565b3480156103f457600080fd5b506103526104033660046124c8565b610ae7565b34801561041457600080fd5b5061035261042336600461247c565b610b0d565b61035261043636600461241d565b610b28565b34801561044757600080fd5b5061038561045636600461241d565b610cea565b34801561046757600080fd5b50600a546102a290600160b01b900460ff1681565b34801561048857600080fd5b50610352610497366004612582565b610d7d565b3480156104a857600080fd5b5061031a6104b736600461241d565b610d95565b3480156104c857600080fd5b50600a546102a290600160a01b900460ff1681565b3480156104e957600080fd5b50610385600a81565b3480156104fe57600080fd5b5061038561050d3660046125cb565b610df5565b34801561051e57600080fd5b50610352610e7b565b34801561053357600080fd5b506103856105423660046125cb565b60126020526000908152604090205481565b34801561056057600080fd5b5061035261056f3660046124c8565b610e8f565b34801561058057600080fd5b5061059461058f3660046125cb565b610eb5565b6040516102ae91906125e6565b3480156105ad57600080fd5b50600a546001600160a01b031661031a565b3480156105cb57600080fd5b50610385600581565b3480156105e057600080fd5b506103526105ef36600461241d565b610f57565b34801561060057600080fd5b5060115461031a906001600160a01b031681565b34801561062057600080fd5b506102ed610f64565b34801561063557600080fd5b5060105461031a906001600160a01b031681565b34801561065557600080fd5b5061035261066436600461241d565b610f73565b34801561067557600080fd5b50610385600d5481565b34801561068b57600080fd5b5061035261069a36600461262a565b61101c565b3480156106ab57600080fd5b50610385600c5481565b3480156106c157600080fd5b506103526106d036600461265d565b611027565b3480156106e157600080fd5b506103526106f036600461276f565b611059565b34801561070157600080fd5b506103526107103660046124c8565b611127565b61035261072336600461241d565b61114d565b34801561073457600080fd5b506102ed61074336600461241d565b61129b565b34801561075457600080fd5b506102ed611376565b34801561076957600080fd5b506102a26107783660046127a4565b6001600160a01b03918216600090815260056020908152604080832093909416825291909152205460ff1690565b3480156107b257600080fd5b506103526107c13660046127ce565b611404565b3480156107d257600080fd5b506103526107e13660046125cb565b611487565b6103526107f436600461241d565b611500565b61035261080736600461241d565b61164e565b34801561081857600080fd5b50610385600b5481565b60006001600160e01b0319821663780e9d6360e01b1480610847575061084782611714565b92915050565b60606000805461085c90612889565b80601f016020809104026020016040519081016040528092919081815260200182805461088890612889565b80156108d55780601f106108aa576101008083540402835291602001916108d5565b820191906000526020600020905b8154815290600101906020018083116108b857829003601f168201915b5050505050905090565b60006108ea82611764565b506000908152600460205260409020546001600160a01b031690565b600061091182610d95565b9050806001600160a01b0316836001600160a01b0316036109835760405162461bcd60e51b815260206004820152602160248201527f4552433732313a20617070726f76616c20746f2063757272656e74206f776e656044820152603960f91b60648201526084015b60405180910390fd5b336001600160a01b038216148061099f575061099f8133610778565b610a115760405162461bcd60e51b815260206004820152603d60248201527f4552433732313a20617070726f76652063616c6c6572206973206e6f7420746f60448201527f6b656e206f776e6572206f7220617070726f76656420666f7220616c6c000000606482015260840161097a565b610a1b83836117c3565b505050565b610a2a3382611831565b610a465760405162461bcd60e51b815260040161097a906128c3565b610a1b8383836118b0565b6000610a5c83610df5565b8210610abe5760405162461bcd60e51b815260206004820152602b60248201527f455243373231456e756d657261626c653a206f776e657220696e646578206f7560448201526a74206f6620626f756e647360a81b606482015260840161097a565b506001600160a01b03919091166000908152600660209081526040808320938352929052205490565b610aef611a21565b600a8054911515600160b01b0260ff60b01b19909216919091179055565b610a1b83838360405180602001604052806000815250611027565b6000610b3360085490565b33600090815260126020526040902054600a5491925090600160a81b900460ff16610b995760405162461bcd60e51b815260206004820152601660248201527557686974656c6973742069736e27742061637469766560501b604482015260640161097a565b60008111610bf55760405162461bcd60e51b815260206004820152602360248201527f4e6f20746f6b656e7320726573657276656420666f7220796f7572206164647260448201526265737360e81b606482015260840161097a565b80831115610c455760405162461bcd60e51b815260206004820152601d60248201527f43616e2774206d696e74206d6f7265207468616e207265736572766564000000604482015260640161097a565b601e610c518484612926565b1115610c6f5760405162461bcd60e51b815260040161097a90612939565b82600d54610c7d9190612970565b3414610c9b5760405162461bcd60e51b815260040161097a9061298f565b610ca583826129c6565b3360009081526012602052604090205560015b838111610ce457610cd233610ccd8386612926565b611a7b565b80610cdc816129d9565b915050610cb8565b50505050565b6000610cf560085490565b8210610d585760405162461bcd60e51b815260206004820152602c60248201527f455243373231456e756d657261626c653a20676c6f62616c20696e646578206f60448201526b7574206f6620626f756e647360a01b606482015260840161097a565b60088281548110610d6b57610d6b6129f2565b90600052602060002001549050919050565b610d85611a21565b600e610d918282612a56565b5050565b6000818152600260205260408120546001600160a01b0316806108475760405162461bcd60e51b8152602060048201526018602482015277115490cdcc8c4e881a5b9d985b1a59081d1bdad95b88125160421b604482015260640161097a565b60006001600160a01b038216610e5f5760405162461bcd60e51b815260206004820152602960248201527f4552433732313a2061646472657373207a65726f206973206e6f7420612076616044820152683634b21037bbb732b960b91b606482015260840161097a565b506001600160a01b031660009081526003602052604090205490565b610e83611a21565b610e8d6000611a95565b565b610e97611a21565b600a8054911515600160a01b0260ff60a01b19909216919091179055565b60606000610ec283610df5565b905060008167ffffffffffffffff811115610edf57610edf6124e3565b604051908082528060200260200182016040528015610f08578160200160208202803683370190505b50905060005b82811015610f4f57610f208582610a51565b828281518110610f3257610f326129f2565b602090810291909101015280610f47816129d9565b915050610f0e565b509392505050565b610f5f611a21565b600d55565b60606001805461085c90612889565b610f7b611a21565b600b54811115610fd85760405162461bcd60e51b815260206004820152602260248201527f43616e27742072657365727665206d6f7265207468616e2073657420616d6f756044820152611b9d60f21b606482015260840161097a565b80600b6000828254610fea91906129c6565b909155505060085460015b828111610a1b5761100a33610ccd8385612926565b80611014816129d9565b915050610ff5565b610d91338383611ae7565b6110313383611831565b61104d5760405162461bcd60e51b815260040161097a906128c3565b610ce484848484611bb5565b611061611a21565b80600081518110611074576110746129f2565b6020026020010151600f60006101000a8154816001600160a01b0302191690836001600160a01b03160217905550806001815181106110b5576110b56129f2565b6020026020010151601060006101000a8154816001600160a01b0302191690836001600160a01b03160217905550806002815181106110f6576110f66129f2565b6020026020010151601160006101000a8154816001600160a01b0302191690836001600160a01b0316021790555050565b61112f611a21565b600a8054911515600160a81b0260ff60a81b19909216919091179055565b600061115860085490565b600a54909150600160a01b900460ff166111a85760405162461bcd60e51b815260206004820152601160248201527053616c652069736e27742061637469766560781b604482015260640161097a565b6000821180156111b9575060058211155b61121b5760405162461bcd60e51b815260206004820152602d60248201527f43616e206f6e6c79206d696e74206265747765656e203120616e64203130207460448201526c6f6b656e73206174206f6e636560981b606482015260840161097a565b601e6112278383612926565b11156112455760405162461bcd60e51b815260040161097a90612939565b81600d546112539190612970565b34146112715760405162461bcd60e51b815260040161097a9061298f565b60015b828111610a1b5761128933610ccd8385612926565b80611293816129d9565b915050611274565b6000818152600260205260409020546060906001600160a01b031661131a5760405162461bcd60e51b815260206004820152602f60248201527f4552433732314d657461646174613a2055524920717565727920666f72206e6f60448201526e3732bc34b9ba32b73a103a37b5b2b760891b606482015260840161097a565b6000611324611be8565b90506000815111611344576040518060200160405280600081525061136f565b8061134e84611bf7565b60405160200161135f929190612b16565b6040516020818303038152906040525b9392505050565b600e805461138390612889565b80601f01602080910402602001604051908101604052809291908181526020018280546113af90612889565b80156113fc5780601f106113d1576101008083540402835291602001916113fc565b820191906000526020600020905b8154815290600101906020018083116113df57829003601f168201915b505050505081565b61140c611a21565b60005b8251811015610a1b5781818151811061142a5761142a6129f2565b602002602001015160126000858481518110611448576114486129f2565b60200260200101516001600160a01b03166001600160a01b0316815260200190815260200160002081905550808061147f906129d9565b91505061140f565b61148f611a21565b6001600160a01b0381166114f45760405162461bcd60e51b815260206004820152602660248201527f4f776e61626c653a206e6577206f776e657220697320746865207a65726f206160448201526564647265737360d01b606482015260840161097a565b6114fd81611a95565b50565b600061150b60085490565b600a54909150600160b01b900460ff1661155b5760405162461bcd60e51b815260206004820152601160248201527053616c652069736e27742061637469766560781b604482015260640161097a565b60008211801561156c575060058211155b6115ce5760405162461bcd60e51b815260206004820152602d60248201527f43616e206f6e6c79206d696e74206265747765656e203120616e64203230207460448201526c6f6b656e73206174206f6e636560981b606482015260840161097a565b600a6115da8383612926565b11156115f85760405162461bcd60e51b815260040161097a90612939565b81600d546116069190612970565b34146116245760405162461bcd60e51b815260040161097a9061298f565b60015b828111610a1b5761163c33610ccd8385612926565b80611646816129d9565b915050611627565b611656611a21565b6000611663606483612b55565b600f549091506001600160a01b03166108fc611680836028612970565b6040518115909202916000818181858888f193505050506116a057600080fd5b6010546001600160a01b03166108fc6116ba83601e612970565b6040518115909202916000818181858888f193505050506116da57600080fd5b6011546001600160a01b03166108fc6116f483601e612970565b6040518115909202916000818181858888f19350505050610d9157600080fd5b60006001600160e01b031982166380ac58cd60e01b148061174557506001600160e01b03198216635b5e139f60e01b145b8061084757506301ffc9a760e01b6001600160e01b0319831614610847565b6000818152600260205260409020546001600160a01b03166114fd5760405162461bcd60e51b8152602060048201526018602482015277115490cdcc8c4e881a5b9d985b1a59081d1bdad95b88125160421b604482015260640161097a565b600081815260046020526040902080546001600160a01b0319166001600160a01b03841690811790915581906117f882610d95565b6001600160a01b03167f8c5be1e5ebec7d5bd14f71427d1e84f3dd0314c0f7b2291e5b200ac8c7c3b92560405160405180910390a45050565b60008061183d83610d95565b9050806001600160a01b0316846001600160a01b0316148061188457506001600160a01b0380821660009081526005602090815260408083209388168352929052205460ff165b806118a85750836001600160a01b031661189d846108df565b6001600160a01b0316145b949350505050565b826001600160a01b03166118c382610d95565b6001600160a01b0316146118e95760405162461bcd60e51b815260040161097a90612b77565b6001600160a01b03821661194b5760405162461bcd60e51b8152602060048201526024808201527f4552433732313a207472616e7366657220746f20746865207a65726f206164646044820152637265737360e01b606482015260840161097a565b6119588383836001611c8a565b826001600160a01b031661196b82610d95565b6001600160a01b0316146119915760405162461bcd60e51b815260040161097a90612b77565b600081815260046020908152604080832080546001600160a01b03199081169091556001600160a01b0387811680865260038552838620805460001901905590871680865283862080546001019055868652600290945282852080549092168417909155905184937fddf252ad1be2c89b69c2b068fc378daa952ba7f163c4a11628f55a4df523b3ef91a4505050565b600a546001600160a01b03163314610e8d5760405162461bcd60e51b815260206004820181905260248201527f4f776e61626c653a2063616c6c6572206973206e6f7420746865206f776e6572604482015260640161097a565b610d91828260405180602001604052806000815250611dca565b600a80546001600160a01b038381166001600160a01b0319831681179093556040519116919082907f8be0079c531659141344cd1fd0a4f28419497f9722a3daafe3b4186f6b6457e090600090a35050565b816001600160a01b0316836001600160a01b031603611b485760405162461bcd60e51b815260206004820152601960248201527f4552433732313a20617070726f766520746f2063616c6c657200000000000000604482015260640161097a565b6001600160a01b03838116600081815260056020908152604080832094871680845294825291829020805460ff191686151590811790915591519182527f17307eab39ab6107e8899845ad3d59bd9653f200f220920489ca2b5937696c31910160405180910390a3505050565b611bc08484846118b0565b611bcc84848484611dfd565b610ce45760405162461bcd60e51b815260040161097a90612bbc565b6060600e805461085c90612889565b60606000611c0483611efe565b600101905060008167ffffffffffffffff811115611c2457611c246124e3565b6040519080825280601f01601f191660200182016040528015611c4e576020820181803683370190505b5090508181016020015b600019016f181899199a1a9b1b9c1cb0b131b232b360811b600a86061a8153600a8504945084611c5857509392505050565b611c9684848484611fd6565b6001811115611d055760405162461bcd60e51b815260206004820152603560248201527f455243373231456e756d657261626c653a20636f6e7365637574697665207472604482015274185b9cd9995c9cc81b9bdd081cdd5c1c1bdc9d1959605a1b606482015260840161097a565b816001600160a01b038516611d6157611d5c81600880546000838152600960205260408120829055600182018355919091527ff3f7a9fe364faab93b216da50a3214154f22a0a2b415b23a84c8169e8b636ee30155565b611d84565b836001600160a01b0316856001600160a01b031614611d8457611d84858261205e565b6001600160a01b038416611da057611d9b816120fb565b611dc3565b846001600160a01b0316846001600160a01b031614611dc357611dc384826121aa565b5050505050565b611dd483836121ee565b611de16000848484611dfd565b610a1b5760405162461bcd60e51b815260040161097a90612bbc565b60006001600160a01b0384163b15611ef357604051630a85bd0160e11b81526001600160a01b0385169063150b7a0290611e41903390899088908890600401612c0e565b6020604051808303816000875af1925050508015611e7c575060408051601f3d908101601f19168201909252611e7991810190612c4b565b60015b611ed9573d808015611eaa576040519150601f19603f3d011682016040523d82523d6000602084013e611eaf565b606091505b508051600003611ed15760405162461bcd60e51b815260040161097a90612bbc565b805181602001fd5b6001600160e01b031916630a85bd0160e11b1490506118a8565b506001949350505050565b60008072184f03e93ff9f4daa797ed6e38ed64bf6a1f0160401b8310611f3d5772184f03e93ff9f4daa797ed6e38ed64bf6a1f0160401b830492506040015b6d04ee2d6d415b85acef81000000008310611f69576d04ee2d6d415b85acef8100000000830492506020015b662386f26fc100008310611f8757662386f26fc10000830492506010015b6305f5e1008310611f9f576305f5e100830492506008015b6127108310611fb357612710830492506004015b60648310611fc5576064830492506002015b600a83106108475760010192915050565b6001811115610ce4576001600160a01b0384161561201c576001600160a01b038416600090815260036020526040812080548392906120169084906129c6565b90915550505b6001600160a01b03831615610ce4576001600160a01b03831660009081526003602052604081208054839290612053908490612926565b909155505050505050565b6000600161206b84610df5565b61207591906129c6565b6000838152600760205260409020549091508082146120c8576001600160a01b03841660009081526006602090815260408083208584528252808320548484528184208190558352600790915290208190555b5060009182526007602090815260408084208490556001600160a01b039094168352600681528383209183525290812055565b60085460009061210d906001906129c6565b60008381526009602052604081205460088054939450909284908110612135576121356129f2565b906000526020600020015490508060088381548110612156576121566129f2565b600091825260208083209091019290925582815260099091526040808220849055858252812055600880548061218e5761218e612c68565b6001900381819060005260206000200160009055905550505050565b60006121b583610df5565b6001600160a01b039093166000908152600660209081526040808320868452825280832085905593825260079052919091209190915550565b6001600160a01b0382166122445760405162461bcd60e51b815260206004820181905260248201527f4552433732313a206d696e7420746f20746865207a65726f2061646472657373604482015260640161097a565b6000818152600260205260409020546001600160a01b0316156122a95760405162461bcd60e51b815260206004820152601c60248201527f4552433732313a20746f6b656e20616c7265616479206d696e74656400000000604482015260640161097a565b6122b7600083836001611c8a565b6000818152600260205260409020546001600160a01b03161561231c5760405162461bcd60e51b815260206004820152601c60248201527f4552433732313a20746f6b656e20616c7265616479206d696e74656400000000604482015260640161097a565b6001600160a01b038216600081815260036020908152604080832080546001019055848352600290915280822080546001600160a01b0319168417905551839291907fddf252ad1be2c89b69c2b068fc378daa952ba7f163c4a11628f55a4df523b3ef908290a45050565b6001600160e01b0319811681146114fd57600080fd5b6000602082840312156123af57600080fd5b813561136f81612387565b60005b838110156123d55781810151838201526020016123bd565b50506000910152565b600081518084526123f68160208601602086016123ba565b601f01601f19169290920160200192915050565b60208152600061136f60208301846123de565b60006020828403121561242f57600080fd5b5035919050565b80356001600160a01b038116811461244d57600080fd5b919050565b6000806040838503121561246557600080fd5b61246e83612436565b946020939093013593505050565b60008060006060848603121561249157600080fd5b61249a84612436565b92506124a860208501612436565b9150604084013590509250925092565b8035801515811461244d57600080fd5b6000602082840312156124da57600080fd5b61136f826124b8565b634e487b7160e01b600052604160045260246000fd5b604051601f8201601f1916810167ffffffffffffffff81118282101715612522576125226124e3565b604052919050565b600067ffffffffffffffff831115612544576125446124e3565b612557601f8401601f19166020016124f9565b905082815283838301111561256b57600080fd5b828260208301376000602084830101529392505050565b60006020828403121561259457600080fd5b813567ffffffffffffffff8111156125ab57600080fd5b8201601f810184136125bc57600080fd5b6118a88482356020840161252a565b6000602082840312156125dd57600080fd5b61136f82612436565b6020808252825182820181905260009190848201906040850190845b8181101561261e57835183529284019291840191600101612602565b50909695505050505050565b6000806040838503121561263d57600080fd5b61264683612436565b9150612654602084016124b8565b90509250929050565b6000806000806080858703121561267357600080fd5b61267c85612436565b935061268a60208601612436565b925060408501359150606085013567ffffffffffffffff8111156126ad57600080fd5b8501601f810187136126be57600080fd5b6126cd8782356020840161252a565b91505092959194509250565b600067ffffffffffffffff8211156126f3576126f36124e3565b5060051b60200190565b600082601f83011261270e57600080fd5b8135602061272361271e836126d9565b6124f9565b82815260059290921b8401810191818101908684111561274257600080fd5b8286015b848110156127645761275781612436565b8352918301918301612746565b509695505050505050565b60006020828403121561278157600080fd5b813567ffffffffffffffff81111561279857600080fd5b6118a8848285016126fd565b600080604083850312156127b757600080fd5b6127c083612436565b915061265460208401612436565b600080604083850312156127e157600080fd5b823567ffffffffffffffff808211156127f957600080fd5b612805868387016126fd565b935060209150818501358181111561281c57600080fd5b85019050601f8101861361282f57600080fd5b803561283d61271e826126d9565b81815260059190911b8201830190838101908883111561285c57600080fd5b928401925b8284101561287a57833582529284019290840190612861565b80955050505050509250929050565b600181811c9082168061289d57607f821691505b6020821081036128bd57634e487b7160e01b600052602260045260246000fd5b50919050565b6020808252602d908201527f4552433732313a2063616c6c6572206973206e6f7420746f6b656e206f776e6560408201526c1c881bdc88185c1c1c9bdd9959609a1b606082015260800190565b634e487b7160e01b600052601160045260246000fd5b8082018082111561084757610847612910565b6020808252601f908201527f43616e2774206d696e74206d6f7265207468616e206d617820737570706c7900604082015260600190565b600081600019048311821515161561298a5761298a612910565b500290565b60208082526018908201527f57726f6e6720616d6f756e74206f66204554482073656e740000000000000000604082015260600190565b8181038181111561084757610847612910565b6000600182016129eb576129eb612910565b5060010190565b634e487b7160e01b600052603260045260246000fd5b601f821115610a1b57600081815260208120601f850160051c81016020861015612a2f5750805b601f850160051c820191505b81811015612a4e57828155600101612a3b565b505050505050565b815167ffffffffffffffff811115612a7057612a706124e3565b612a8481612a7e8454612889565b84612a08565b602080601f831160018114612ab95760008415612aa15750858301515b600019600386901b1c1916600185901b178555612a4e565b600085815260208120601f198616915b82811015612ae857888601518255948401946001909101908401612ac9565b5085821015612b065787850151600019600388901b60f8161c191681555b5050505050600190811b01905550565b60008351612b288184602088016123ba565b835190830190612b3c8183602088016123ba565b64173539b7b760d91b9101908152600501949350505050565b600082612b7257634e487b7160e01b600052601260045260246000fd5b500490565b60208082526025908201527f4552433732313a207472616e736665722066726f6d20696e636f72726563742060408201526437bbb732b960d91b606082015260800190565b60208082526032908201527f4552433732313a207472616e7366657220746f206e6f6e20455243373231526560408201527131b2b4bb32b91034b6b83632b6b2b73a32b960711b606082015260800190565b6001600160a01b0385811682528416602082015260408101839052608060608201819052600090612c41908301846123de565b9695505050505050565b600060208284031215612c5d57600080fd5b815161136f81612387565b634e487b7160e01b600052603160045260246000fdfea26469706673582212209c13f4414cfdaa67bb4369883ffe6667d2c3cadad2e20c4010dd7ca14359edae64736f6c6343000810003368747470733a2f2f697066732e696f2f697066732f516d5531654a6877446f373736736845793931514a4238474e32544d5436463353455833554c6f666b375664376a2f",
    "linkReferences": {}
  },
  "methodIdentifiers": {
    "MAX_MINT_PER_TX()": "8ecad721",
    "MAX_PRESALE_SUPPLY()": "6b8dc355",
    "MAX_SUPPLY()": "32cb6b0c",
    "a1()": "119552a1",
    "a2()": "969e9d0c",
    "a3()": "9426eef8",
    "approve(address,uint256)": "095ea7b3",
    "balanceOf(address)": "70a08231",
    "baseTokenURI()": "d547cfb7",
    "editWhitelistReserved(address[],uint256[])": "f14c0bcc",
    "getApproved(uint256)": "081812fc",
    "initial_price()": "ab3f5a1a",
    "isApprovedForAll(address,address)": "e985e9c5",
    "mintPresale(uint256)": "f759867a",
    "mintReserved(uint256)": "9a5d140b",
    "mintToken(uint256)": "c634d032",
    "mintWhitelist(uint256)": "4618163e",
    "name()": "06fdde03",
    "owner()": "8da5cb5b",
    "ownerOf(uint256)": "6352211e",
    "presaleActive()": "53135ca0",
    "price()": "a035b1fe",
    "renounceOwnership()": "715018a6",
    "reserved()": "fe60d12c",
    "safeTransferFrom(address,address,uint256)": "42842e0e",
    "safeTransferFrom(address,address,uint256,bytes)": "b88d4fde",
    "saleActive()": "68428a1b",
    "setAddresses(address[])": "b9571721",
    "setApprovalForAll(address,bool)": "a22cb465",
    "setBaseURI(string)": "55f804b3",
    "setPresaleActive(bool)": "3f8121a2",
    "setPrice(uint256)": "91b7f5ed",
    "setSaleActive(bool)": "841718a6",
    "setWhitelistActive(bool)": "c3b754dc",
    "supportsInterface(bytes4)": "01ffc9a7",
    "symbol()": "95d89b41",
    "tokenByIndex(uint256)": "4f6ccce7",
    "tokenOfOwnerByIndex(address,uint256)": "2f745c59",
    "tokenURI(uint256)": "c87b56dd",
    "tokensOfOwner(address)": "8462151c",
    "totalSupply()": "18160ddd",
    "transferFrom(address,address,uint256)": "23b872dd",
    "transferOwnership(address)": "f2fde38b",
    "whitelistActive()": "02ce5813",
    "whitelistReserved(address)": "72e3a3eb",
    "withdrawTeam(uint256)": "fd2b0492"
  },
  "id": 13
}